{
  "_format": "hh-sol-artifact-1",
  "contractName": "Lottery2",
  "sourceName": "contracts/Lottery2.sol",
  "abi": [
    {
      "inputs": [],
      "stateMutability": "nonpayable",
      "type": "constructor"
    },
    {
      "inputs": [],
      "name": "claimPrize",
      "outputs": [],
      "stateMutability": "nonpayable",
      "type": "function"
    },
    {
      "inputs": [],
      "name": "claimed",
      "outputs": [
        {
          "internalType": "bool",
          "name": "",
          "type": "bool"
        }
      ],
      "stateMutability": "view",
      "type": "function"
    },
    {
      "inputs": [],
      "name": "currentRound",
      "outputs": [
        {
          "internalType": "uint256",
          "name": "",
          "type": "uint256"
        }
      ],
      "stateMutability": "view",
      "type": "function"
    },
    {
      "inputs": [],
      "name": "enter",
      "outputs": [],
      "stateMutability": "payable",
      "type": "function"
    },
    {
      "inputs": [],
      "name": "getManager",
      "outputs": [
        {
          "internalType": "address",
          "name": "",
          "type": "address"
        }
      ],
      "stateMutability": "view",
      "type": "function"
    },
    {
      "inputs": [],
      "name": "getPlayers",
      "outputs": [
        {
          "internalType": "address payable[]",
          "name": "",
          "type": "address[]"
        }
      ],
      "stateMutability": "view",
      "type": "function"
    },
    {
      "inputs": [
        {
          "internalType": "uint256",
          "name": "_round",
          "type": "uint256"
        }
      ],
      "name": "getRoundWinner",
      "outputs": [
        {
          "internalType": "address",
          "name": "",
          "type": "address"
        }
      ],
      "stateMutability": "view",
      "type": "function"
    },
    {
      "inputs": [],
      "name": "getWinner",
      "outputs": [
        {
          "internalType": "address",
          "name": "",
          "type": "address"
        }
      ],
      "stateMutability": "view",
      "type": "function"
    },
    {
      "inputs": [],
      "name": "isComplete",
      "outputs": [
        {
          "internalType": "bool",
          "name": "",
          "type": "bool"
        }
      ],
      "stateMutability": "view",
      "type": "function"
    },
    {
      "inputs": [],
      "name": "manager",
      "outputs": [
        {
          "internalType": "address",
          "name": "",
          "type": "address"
        }
      ],
      "stateMutability": "view",
      "type": "function"
    },
    {
      "inputs": [],
      "name": "pickWinner",
      "outputs": [],
      "stateMutability": "nonpayable",
      "type": "function"
    },
    {
      "inputs": [
        {
          "internalType": "uint256",
          "name": "",
          "type": "uint256"
        }
      ],
      "name": "players",
      "outputs": [
        {
          "internalType": "address payable",
          "name": "",
          "type": "address"
        }
      ],
      "stateMutability": "view",
      "type": "function"
    },
    {
      "inputs": [],
      "name": "round",
      "outputs": [
        {
          "internalType": "uint256",
          "name": "",
          "type": "uint256"
        }
      ],
      "stateMutability": "view",
      "type": "function"
    },
    {
      "inputs": [
        {
          "internalType": "uint256",
          "name": "",
          "type": "uint256"
        }
      ],
      "name": "roundWinners",
      "outputs": [
        {
          "internalType": "address payable",
          "name": "",
          "type": "address"
        }
      ],
      "stateMutability": "view",
      "type": "function"
    },
    {
      "inputs": [],
      "name": "startNewRound",
      "outputs": [],
      "stateMutability": "nonpayable",
      "type": "function"
    },
    {
      "inputs": [],
      "name": "status",
      "outputs": [
        {
          "internalType": "bool",
          "name": "",
          "type": "bool"
        }
      ],
      "stateMutability": "view",
      "type": "function"
    },
    {
      "inputs": [],
      "name": "winner",
      "outputs": [
        {
          "internalType": "address payable",
          "name": "",
          "type": "address"
        }
      ],
      "stateMutability": "view",
      "type": "function"
    }
  ],
  "bytecode": "0x608060405234801561001057600080fd5b50336000806101000a81548173ffffffffffffffffffffffffffffffffffffffff021916908373ffffffffffffffffffffffffffffffffffffffff16021790555060016003819055506000600260146101000a81548160ff0219169083151502179055506000600260156101000a81548160ff02191690831515021790555060035460048190555061148d806100a76000396000f3fe6080604052600436106100fe5760003560e01c80638b5b9ccc11610095578063d500958411610064578063d5009584146102ef578063dfbf53ae1461031a578063e834a83414610345578063e97dcb6214610370578063f71d96cb1461037a576100fe565b80638b5b9ccc146102575780638e7ea5b214610282578063b2fa1c9e146102ad578063bd85948c146102d8576100fe565b80635d495aea116100d15780635d495aea146101c157806370740ac9146101d857806376a4956c146101ef5780638a19c8bc1461022c576100fe565b8063146ca53114610103578063200d2ed21461012e578063481c6a751461015957806354a8fb4714610184575b600080fd5b34801561010f57600080fd5b506101186103b7565b6040516101259190610cc9565b60405180910390f35b34801561013a57600080fd5b506101436103bd565b6040516101509190610cff565b60405180910390f35b34801561016557600080fd5b5061016e6103d4565b60405161017b9190610d5b565b60405180910390f35b34801561019057600080fd5b506101ab60048036038101906101a69190610da7565b6103f8565b6040516101b89190610d5b565b60405180910390f35b3480156101cd57600080fd5b506101d6610435565b005b3480156101e457600080fd5b506101ed61069b565b005b3480156101fb57600080fd5b5061021660048036038101906102119190610da7565b610850565b6040516102239190610df5565b60405180910390f35b34801561023857600080fd5b50610241610883565b60405161024e9190610cc9565b60405180910390f35b34801561026357600080fd5b5061026c610889565b6040516102799190610ece565b60405180910390f35b34801561028e57600080fd5b50610297610917565b6040516102a49190610d5b565b60405180910390f35b3480156102b957600080fd5b506102c2610941565b6040516102cf9190610cff565b60405180910390f35b3480156102e457600080fd5b506102ed610954565b005b3480156102fb57600080fd5b50610304610a98565b6040516103119190610d5b565b60405180910390f35b34801561032657600080fd5b5061032f610ac1565b60405161033c9190610df5565b60405180910390f35b34801561035157600080fd5b5061035a610ae7565b6040516103679190610cff565b60405180910390f35b610378610afa565b005b34801561038657600080fd5b506103a1600480360381019061039c9190610da7565b610bf9565b6040516103ae9190610df5565b60405180910390f35b60035481565b6000600260149054906101000a900460ff16905090565b60008054906101000a900473ffffffffffffffffffffffffffffffffffffffff1681565b60006005600083815260200190815260200160002060009054906101000a900473ffffffffffffffffffffffffffffffffffffffff169050919050565b60008054906101000a900473ffffffffffffffffffffffffffffffffffffffff1673ffffffffffffffffffffffffffffffffffffffff163373ffffffffffffffffffffffffffffffffffffffff16146104c3576040517f08c379a00000000000000000000000000000000000000000000000000000000081526004016104ba90610f73565b60405180910390fd5b60006001805490501161050b576040517f08c379a000000000000000000000000000000000000000000000000000000000815260040161050290610fdf565b60405180910390fd5b600260149054906101000a900460ff161561055b576040517f08c379a00000000000000000000000000000000000000000000000000000000081526004016105529061104b565b60405180910390fd5b6001808054905061056a610c38565b610574919061109a565b81548110610585576105846110cb565b5b9060005260206000200160009054906101000a900473ffffffffffffffffffffffffffffffffffffffff16600260006101000a81548173ffffffffffffffffffffffffffffffffffffffff021916908373ffffffffffffffffffffffffffffffffffffffff160217905550600260009054906101000a900473ffffffffffffffffffffffffffffffffffffffff1660056000600454815260200190815260200160002060006101000a81548173ffffffffffffffffffffffffffffffffffffffff021916908373ffffffffffffffffffffffffffffffffffffffff1602179055506001600260146101000a81548160ff0219169083151502179055506004600081548092919061069490611129565b9190505550565b600260009054906101000a900473ffffffffffffffffffffffffffffffffffffffff1673ffffffffffffffffffffffffffffffffffffffff163373ffffffffffffffffffffffffffffffffffffffff161461072b576040517f08c379a0000000000000000000000000000000000000000000000000000000008152600401610722906111bd565b60405180910390fd5b600260149054906101000a900460ff1661077a576040517f08c379a000000000000000000000000000000000000000000000000000000000815260040161077190611229565b60405180910390fd5b600260159054906101000a900460ff16156107ca576040517f08c379a00000000000000000000000000000000000000000000000000000000081526004016107c190611295565b60405180910390fd5b600260009054906101000a900473ffffffffffffffffffffffffffffffffffffffff1673ffffffffffffffffffffffffffffffffffffffff166108fc479081150290604051600060405180830381858888f19350505050158015610832573d6000803e3d6000fd5b506001600260156101000a81548160ff021916908315150217905550565b60056020528060005260406000206000915054906101000a900473ffffffffffffffffffffffffffffffffffffffff1681565b60045481565b6060600180548060200260200160405190810160405280929190818152602001828054801561090d57602002820191906000526020600020905b8160009054906101000a900473ffffffffffffffffffffffffffffffffffffffff1673ffffffffffffffffffffffffffffffffffffffff16815260200190600101908083116108c3575b5050505050905090565b6000600260009054906101000a900473ffffffffffffffffffffffffffffffffffffffff16905090565b600260149054906101000a900460ff1681565b60008054906101000a900473ffffffffffffffffffffffffffffffffffffffff1673ffffffffffffffffffffffffffffffffffffffff163373ffffffffffffffffffffffffffffffffffffffff16146109e2576040517f08c379a00000000000000000000000000000000000000000000000000000000081526004016109d990610f73565b60405180910390fd5b600260149054906101000a900460ff16610a31576040517f08c379a0000000000000000000000000000000000000000000000000000000008152600401610a2890611301565b60405180910390fd5b60016000610a3f9190610c72565b6000600260146101000a81548160ff0219169083151502179055506000600260156101000a81548160ff02191690831515021790555060036000815480929190610a8890611129565b9190505550600354600481905550565b60008060009054906101000a900473ffffffffffffffffffffffffffffffffffffffff16905090565b600260009054906101000a900473ffffffffffffffffffffffffffffffffffffffff1681565b600260159054906101000a900460ff1681565b66038d7ea4c68000341015610b44576040517f08c379a0000000000000000000000000000000000000000000000000000000008152600401610b3b9061136d565b60405180910390fd5b600260149054906101000a900460ff1615610b94576040517f08c379a0000000000000000000000000000000000000000000000000000000008152600401610b8b906113d9565b60405180910390fd5b6001339080600181540180825580915050600190039060005260206000200160009091909190916101000a81548173ffffffffffffffffffffffffffffffffffffffff021916908373ffffffffffffffffffffffffffffffffffffffff160217905550565b60018181548110610c0957600080fd5b906000526020600020016000915054906101000a900473ffffffffffffffffffffffffffffffffffffffff1681565b60004442600180549050604051602001610c549392919061141a565b6040516020818303038152906040528051906020012060001c905090565b5080546000825590600052602060002090810190610c909190610c93565b50565b5b80821115610cac576000816000905550600101610c94565b5090565b6000819050919050565b610cc381610cb0565b82525050565b6000602082019050610cde6000830184610cba565b92915050565b60008115159050919050565b610cf981610ce4565b82525050565b6000602082019050610d146000830184610cf0565b92915050565b600073ffffffffffffffffffffffffffffffffffffffff82169050919050565b6000610d4582610d1a565b9050919050565b610d5581610d3a565b82525050565b6000602082019050610d706000830184610d4c565b92915050565b600080fd5b610d8481610cb0565b8114610d8f57600080fd5b50565b600081359050610da181610d7b565b92915050565b600060208284031215610dbd57610dbc610d76565b5b6000610dcb84828501610d92565b91505092915050565b6000610ddf82610d1a565b9050919050565b610def81610dd4565b82525050565b6000602082019050610e0a6000830184610de6565b92915050565b600081519050919050565b600082825260208201905092915050565b6000819050602082019050919050565b610e4581610dd4565b82525050565b6000610e578383610e3c565b60208301905092915050565b6000602082019050919050565b6000610e7b82610e10565b610e858185610e1b565b9350610e9083610e2c565b8060005b83811015610ec1578151610ea88882610e4b565b9750610eb383610e63565b925050600181019050610e94565b5085935050505092915050565b60006020820190508181036000830152610ee88184610e70565b905092915050565b600082825260208201905092915050565b7f4f6e6c79206d616e616765722063616e20706572666f726d207468697320616360008201527f74696f6e00000000000000000000000000000000000000000000000000000000602082015250565b6000610f5d602483610ef0565b9150610f6882610f01565b604082019050919050565b60006020820190508181036000830152610f8c81610f50565b9050919050565b7f4e6f20706c617965727320746f207069636b2066726f6d000000000000000000600082015250565b6000610fc9601783610ef0565b9150610fd482610f93565b602082019050919050565b60006020820190508181036000830152610ff881610fbc565b9050919050565b7f4c6f747465727920697320616c726561647920636f6d706c6574650000000000600082015250565b6000611035601b83610ef0565b915061104082610fff565b602082019050919050565b6000602082019050818103600083015261106481611028565b9050919050565b7f4e487b7100000000000000000000000000000000000000000000000000000000600052601260045260246000fd5b60006110a582610cb0565b91506110b083610cb0565b9250826110c0576110bf61106b565b5b828206905092915050565b7f4e487b7100000000000000000000000000000000000000000000000000000000600052603260045260246000fd5b7f4e487b7100000000000000000000000000000000000000000000000000000000600052601160045260246000fd5b600061113482610cb0565b91507fffffffffffffffffffffffffffffffffffffffffffffffffffffffffffffffff8203611166576111656110fa565b5b600182019050919050565b7f4f6e6c792077696e6e65722063616e20636c61696d20746865207072697a6500600082015250565b60006111a7601f83610ef0565b91506111b282611171565b602082019050919050565b600060208201905081810360008301526111d68161119a565b9050919050565b7f4c6f7474657279206973206e6f7420636f6d706c657465000000000000000000600082015250565b6000611213601783610ef0565b915061121e826111dd565b602082019050919050565b6000602082019050818103600083015261124281611206565b9050919050565b7f5072697a652068617320616c7265616479206265656e20636c61696d65640000600082015250565b600061127f601e83610ef0565b915061128a82611249565b602082019050919050565b600060208201905081810360008301526112ae81611272565b9050919050565b7f43757272656e7420726f756e64206973206e6f7420636f6d706c657465000000600082015250565b60006112eb601d83610ef0565b91506112f6826112b5565b602082019050919050565b6000602082019050818103600083015261131a816112de565b9050919050565b7f4d696e696d756d20656e7472792066656520697320302e303031204554480000600082015250565b6000611357601e83610ef0565b915061136282611321565b602082019050919050565b600060208201905081810360008301526113868161134a565b9050919050565b7f4c6f747465727920697320636f6d706c65746500000000000000000000000000600082015250565b60006113c3601383610ef0565b91506113ce8261138d565b602082019050919050565b600060208201905081810360008301526113f2816113b6565b9050919050565b6000819050919050565b61141461140f82610cb0565b6113f9565b82525050565b60006114268286611403565b6020820191506114368285611403565b6020820191506114468284611403565b60208201915081905094935050505056fea26469706673582212203e70565baa8d9618c65f3c18c84313cb42b5f07575d6fd103693f4bd31f6127c64736f6c63430008130033",
  "linkReferences": {},
  "deployedLinkReferences": {}
}