{
  "_format": "hh-sol-artifact-1",
  "contractName": "Lottery",
  "sourceName": "contracts/Lottery.sol",
  "abi": [
    {
      "inputs": [],
      "stateMutability": "nonpayable",
      "type": "constructor"
    },
    {
      "inputs": [],
      "name": "claimPrize",
      "outputs": [],
      "stateMutability": "nonpayable",
      "type": "function"
    },
    {
      "inputs": [],
      "name": "claimed",
      "outputs": [
        {
          "internalType": "bool",
          "name": "",
          "type": "bool"
        }
      ],
      "stateMutability": "view",
      "type": "function"
    },
    {
      "inputs": [],
      "name": "enter",
      "outputs": [],
      "stateMutability": "payable",
      "type": "function"
    },
    {
      "inputs": [],
      "name": "getManager",
      "outputs": [
        {
          "internalType": "address",
          "name": "",
          "type": "address"
        }
      ],
      "stateMutability": "view",
      "type": "function"
    },
    {
      "inputs": [],
      "name": "getPlayers",
      "outputs": [
        {
          "internalType": "address payable[]",
          "name": "",
          "type": "address[]"
        }
      ],
      "stateMutability": "view",
      "type": "function"
    },
    {
      "inputs": [],
      "name": "getWinner",
      "outputs": [
        {
          "internalType": "address",
          "name": "",
          "type": "address"
        }
      ],
      "stateMutability": "view",
      "type": "function"
    },
    {
      "inputs": [],
      "name": "isComplete",
      "outputs": [
        {
          "internalType": "bool",
          "name": "",
          "type": "bool"
        }
      ],
      "stateMutability": "view",
      "type": "function"
    },
    {
      "inputs": [],
      "name": "manager",
      "outputs": [
        {
          "internalType": "address",
          "name": "",
          "type": "address"
        }
      ],
      "stateMutability": "view",
      "type": "function"
    },
    {
      "inputs": [],
      "name": "pickWinner",
      "outputs": [],
      "stateMutability": "nonpayable",
      "type": "function"
    },
    {
      "inputs": [
        {
          "internalType": "uint256",
          "name": "",
          "type": "uint256"
        }
      ],
      "name": "players",
      "outputs": [
        {
          "internalType": "address payable",
          "name": "",
          "type": "address"
        }
      ],
      "stateMutability": "view",
      "type": "function"
    },
    {
      "inputs": [],
      "name": "status",
      "outputs": [
        {
          "internalType": "bool",
          "name": "",
          "type": "bool"
        }
      ],
      "stateMutability": "view",
      "type": "function"
    }
  ],
  "bytecode": "0x608060405234801561001057600080fd5b50336000806101000a81548173ffffffffffffffffffffffffffffffffffffffff021916908373ffffffffffffffffffffffffffffffffffffffff1602179055506000600260146101000a81548160ff0219169083151502179055506000600260156101000a81548160ff0219169083151502179055506109f9806100966000396000f3fe60806040526004361061009c5760003560e01c80638e7ea5b2116100645780638e7ea5b214610150578063b2fa1c9e1461017b578063d5009584146101a6578063e834a834146101d1578063e97dcb62146101fc578063f71d96cb146102065761009c565b8063200d2ed2146100a1578063481c6a75146100cc5780635d495aea146100f757806370740ac91461010e5780638b5b9ccc14610125575b600080fd5b3480156100ad57600080fd5b506100b6610243565b6040516100c391906106db565b60405180910390f35b3480156100d857600080fd5b506100e161025a565b6040516100ee9190610737565b60405180910390f35b34801561010357600080fd5b5061010c61027e565b005b34801561011a57600080fd5b506101236103b4565b005b34801561013157600080fd5b5061013a6104ad565b6040516101479190610822565b60405180910390f35b34801561015c57600080fd5b5061016561053b565b6040516101729190610737565b60405180910390f35b34801561018757600080fd5b50610190610565565b60405161019d91906106db565b60405180910390f35b3480156101b257600080fd5b506101bb610578565b6040516101c89190610737565b60405180910390f35b3480156101dd57600080fd5b506101e66105a1565b6040516101f391906106db565b60405180910390f35b6102046105b4565b005b34801561021257600080fd5b5061022d6004803603810190610228919061087f565b610647565b60405161023a91906108bb565b60405180910390f35b6000600260149054906101000a900460ff16905090565b60008054906101000a900473ffffffffffffffffffffffffffffffffffffffff1681565b60008054906101000a900473ffffffffffffffffffffffffffffffffffffffff1673ffffffffffffffffffffffffffffffffffffffff163373ffffffffffffffffffffffffffffffffffffffff16146102d657600080fd5b6000600180549050116102e857600080fd5b600260149054906101000a900460ff161561030257600080fd5b60018080549050610311610686565b61031b9190610905565b8154811061032c5761032b610936565b5b9060005260206000200160009054906101000a900473ffffffffffffffffffffffffffffffffffffffff16600260006101000a81548173ffffffffffffffffffffffffffffffffffffffff021916908373ffffffffffffffffffffffffffffffffffffffff1602179055506001600260146101000a81548160ff021916908315150217905550565b600260009054906101000a900473ffffffffffffffffffffffffffffffffffffffff1673ffffffffffffffffffffffffffffffffffffffff163373ffffffffffffffffffffffffffffffffffffffff161461040e57600080fd5b600260149054906101000a900460ff1661042757600080fd5b600260009054906101000a900473ffffffffffffffffffffffffffffffffffffffff1673ffffffffffffffffffffffffffffffffffffffff166108fc479081150290604051600060405180830381858888f1935050505015801561048f573d6000803e3d6000fd5b506001600260156101000a81548160ff021916908315150217905550565b6060600180548060200260200160405190810160405280929190818152602001828054801561053157602002820191906000526020600020905b8160009054906101000a900473ffffffffffffffffffffffffffffffffffffffff1673ffffffffffffffffffffffffffffffffffffffff16815260200190600101908083116104e7575b5050505050905090565b6000600260009054906101000a900473ffffffffffffffffffffffffffffffffffffffff16905090565b600260149054906101000a900460ff1681565b60008060009054906101000a900473ffffffffffffffffffffffffffffffffffffffff16905090565b600260159054906101000a900460ff1681565b66038d7ea4c680003410156105c857600080fd5b600260149054906101000a900460ff16156105e257600080fd5b6001339080600181540180825580915050600190039060005260206000200160009091909190916101000a81548173ffffffffffffffffffffffffffffffffffffffff021916908373ffffffffffffffffffffffffffffffffffffffff160217905550565b6001818154811061065757600080fd5b906000526020600020016000915054906101000a900473ffffffffffffffffffffffffffffffffffffffff1681565b600044426001805490506040516020016106a293929190610986565b6040516020818303038152906040528051906020012060001c905090565b60008115159050919050565b6106d5816106c0565b82525050565b60006020820190506106f060008301846106cc565b92915050565b600073ffffffffffffffffffffffffffffffffffffffff82169050919050565b6000610721826106f6565b9050919050565b61073181610716565b82525050565b600060208201905061074c6000830184610728565b92915050565b600081519050919050565b600082825260208201905092915050565b6000819050602082019050919050565b6000610789826106f6565b9050919050565b6107998161077e565b82525050565b60006107ab8383610790565b60208301905092915050565b6000602082019050919050565b60006107cf82610752565b6107d9818561075d565b93506107e48361076e565b8060005b838110156108155781516107fc888261079f565b9750610807836107b7565b9250506001810190506107e8565b5085935050505092915050565b6000602082019050818103600083015261083c81846107c4565b905092915050565b600080fd5b6000819050919050565b61085c81610849565b811461086757600080fd5b50565b60008135905061087981610853565b92915050565b60006020828403121561089557610894610844565b5b60006108a38482850161086a565b91505092915050565b6108b58161077e565b82525050565b60006020820190506108d060008301846108ac565b92915050565b7f4e487b7100000000000000000000000000000000000000000000000000000000600052601260045260246000fd5b600061091082610849565b915061091b83610849565b92508261092b5761092a6108d6565b5b828206905092915050565b7f4e487b7100000000000000000000000000000000000000000000000000000000600052603260045260246000fd5b6000819050919050565b61098061097b82610849565b610965565b82525050565b6000610992828661096f565b6020820191506109a2828561096f565b6020820191506109b2828461096f565b60208201915081905094935050505056fea2646970667358221220ee2d92c8c8a8bca4fed544ff1401536e3e6933060279cf9ffb4b4293e331a1f064736f6c63430008130033",
  "linkReferences": {},
  "deployedLinkReferences": {}
}